:020000040800F2
:1000000000000220DD010008290200082902000882
:100010002902000829020008290200080000000047
:10002000000000000000000000000000290200089D
:100030002902000800000000290200082902000827
:1000400029020008290200082902000829020008E4
:1000500029020008290200082902000829020008D4
:1000600029020008290200082902000829020008C4
:1000700029020008290200082902000829020008B4
:1000800029020008290200082902000800000000D7
:10009000000000000000000000000000290200082D
:1000A0002902000829020008290200082902000884
:1000B0002902000829020008290200082902000874
:1000C0002902000829020008290200082902000864
:1000D0002902000829020008290200080000000087
:1000E0002902000829020008290200080000000077
:1000F00000000000000000000000000029020008CD
:100100000000000029020008290200082902000856
:1001100000000000000000000000000000000000DF
:100120002902000829020008290200082902000803
:10013000290200080000000000000000000000008C
:10014000000000000000000000000000290200087C
:1001500029020008290200082902000829020008D3
:100160002902000829020008000000000000000029
:10017000000000000000000000000000000000007F
:10018000000000002902000800000000000000003C
:08019000290200082902000801
:1001980010B5054C237833B9044B13B10448AFF3B9
:1001A80000800123237010BD2C04002000000000F3
:1001B8005403000808B5034B1BB103490348AFF3C8
:1001C800008008BD0000000030040020540300082F
:1001D800FEE70000DFF830D00C480D490D4A002337
:1001E80002E0D458C4500433C4188C42F9D30A4AE4
:1001F8000A4C002301E013600432A242FBD300F052
:1002080011F8FFF7E5FF704700000220000000200A
:100218002C040020840300082C0400204C04002037
:10022800FEE7000070B50D4E0D4D761BB61006D0DA
:10023800002455F8043B01349847A642F9D1094EE9
:10024800094D761B00F082F8B61006D0002455F848
:10025800043B01349847A642F9D170BD78030008E1
:10026800780300088003000878030008024B13B1E4
:10027800024800F005B87047000000009502000829
:10028800002301461A46184600F01AB838B5084B3C
:10029800084D5B1B9C1007D0043B1D44013C55F8DE
:1002A80004399847002CF9D1BDE8384000F054B81B
:1002B8008403000880030008704700BF704700BF30
:1002C8002DE9F047DFF880A00646DAF800009846E6
:1002D8000F469146FFF7F0FF1A4B1B68D3F84841C9
:1002E80024B365681F2D26DC5EB96B1C0235DAF86D
:1002F8000000636044F82570FFF7E0FF0020BDE8C8
:10030800F08704EB85010123C1F88890D4F888218F
:10031800AB401A43022EC4F88821C1F80881E4D101
:10032800D4F88C211343C4F88C31DEE703F5A674A6
:10033800C3F84841D5E7DAF80000FFF7BFFF4FF0F0
:10034800FF30DCE76C03000828040020F8B500BF84
:10035800F8BC08BC9E467047F8B500BFF8BC08BC9E
:040368009E467047F6
:04036C00000000206D
:0803700068FEFF7F01000000A0
:0803780075020008BD01000838
:0403800099010008D7
:1003840000000000EC02002054030020BC03002005
:100394000000000000000000000000000000000059
:1003A4000000000000000000000000000000000049
:1003B4000000000000000000000000000000000039
:1003C4000000000000000000000000000000000029
:1003D4000000000000000000000000000000000019
:1003E4000000000000000000000000000000000009
:1003F40000000000000000000000000000000000F9
:1004040000000000000000000000000000000000E8
:1004140000000000000000000000000000000000D8
:1004240000000000000000000100000000000000C7
:100434000E33CDAB34126DE6ECDE05000B0000008C
:1004440000000000000000000000000000000000A8
:100454000000000000000000000000000000000098
:100464000000000000000000000000000000000088
:100474000000000000000000000000000000000078
:0C07A400000000000000000048040020DD
:04000005080001DD11
:00000001FF
