:020000040800F2
:100000000000022029090008750900087509000888
:10001000750900087509000875090008000000004E
:10002000000000000000000000000000750900084A
:10003000750900080000000075090008750900082E
:100040007509000875090008750900087509000898
:100050007509000875090008750900087509000888
:100060007509000875090008750900087509000878
:100070007509000875090008750900087509000868
:1000800075090008750900087509000800000000DE
:1000900000000000000000000000000075090008DA
:1000A0007509000875090008750900087509000838
:1000B0007509000875090008750900087509000828
:1000C0007509000875090008750900087509000818
:1000D000750900087509000875090008000000008E
:1000E000750900087509000875090008000000007E
:1000F000000000000000000000000000750900087A
:10010000000000007509000875090008750900085D
:1001100000000000000000000000000000000000DF
:1001200075090008750900087509000875090008B7
:100130007509000800000000000000000000000039
:100140000000000000000000000000007509000829
:100150007509000875090008750900087509000887
:100160007509000875090008000000000000000083
:10017000000000000000000000000000000000007F
:1001800000000000750900080000000000000000E9
:0801900075090008750900085B
:100198000348044B834202D0034B03B1184770470E
:1001A8000400002004000020000000000548064963
:1001B8000B1AD90F01EBA301491002D0034B03B16D
:1001C80018477047040000200400002000000000C9
:1001D80010B5064C237843B9FFF7DAFF044B13B187
:1001E8000448AFF300800123237010BD04000020F1
:1001F800000000008009000808B5044B1BB1044941
:100208000448AFF30080BDE80840CFE700000000D5
:10021800080000208009000810B5054C34B11346C9
:100228000A460146022000F029F810BD204610BDFC
:100238008502000870B50D4E0D4D761BB61006D020
:10024800002455F8043B01349847A642F9D1094ED9
:10025800094D761B00F090FBB61006D0002455F827
:10026800043B01349847A642F9D170BD9C090008A7
:100278009C090008A40900089C090008F0B5264C50
:10028800256885B0064605B36C681F2C41DCA6B10D
:10029800D5F8880048B3D0F8007140F824204FF012
:1002A800010C0CFA04FC00EB84024CEA0707022E4E
:1002B800C0F80071C2F8803010D0A31C01346C6003
:1002C80045F82310002005B0F0BD1448144D2560F2
:1002D8000028D9D00068C5F88800D5E7D0F80431DF
:1002E80043EA0C03C0F80431E7E70E480191CDE971
:1002F800022370B14FF48470AFF3008048B1002737
:10030800C0E94077DDE902236C680199C5F88800E7
:10031800C3E74FF0FF30D6E7B40100209809000882
:100328002801002000000000704700000B68B3F1AE
:10033800FF3F0DD00268B2F1FF3F0BD0074931F8FB
:10034800122022FA03F313F0010F05D100207047A1
:10035800002070470020704701207047B801002036
:10036800C368B3F1FF3F01D10020704701207047F7
:1003780008B5FFF7F5FF08BD0369B3F1FF3F01D1E9
:10038800002070470120704708B5FFF7F5FF08BD4A
:1003980010B50446FFF7F8FF18B12046FFF7E8FF4D
:1003A80010B90020606010BD01236360FBE70023E3
:1003B8000360436003818372C3724FF0FF32C260EF
:1003C800026143618361C36103624362704708B598
:1003D800FFF7EDFF012008BD10B50446FFF7F7FF52
:1003E800204610BD10B50446084604F11001FFF779
:1003F8009DFF08B9012010BD052363600020FAE7BE
:1004080010B504460C30FFF791FF08B9012010BD64
:10041800052363600020FAE70B685BB1012B13D05A
:10042800022B13D0032B13D0042B01D0094B02E06D
:10043800094B00E0094B03600948036B0968012276
:100448008A40134303637047064BF4E7064BF2E711
:10045800064BF0E7001C024000100240000002407A
:10046800003802400004024000080240000C02402C
:1004780010B403690968046822685B004FF0030C34
:100488000CFA03FC22EA0C0222600068026801FAF6
:1004980003F3134303605DF8044B704708B5137802
:1004A8001BB10B68023B012B03D9FFF7E1FF0120C9
:1004B80008BD092343600020FAE710B404690A68FC
:1004C800036859684FF0010C0CFA04FC21EA0C018E
:1004D800596001684B68A24013434B605DF8044BB8
:1004E800704710B4036909680468A2685B004FF09C
:1004F800030C0CFA03FC22EA0C02A2600068826872
:1005080001FA03F3134383605DF8044B704710B49A
:10051800036909680468E2685B004FF0030C0CFA91
:1005280003FC22EA0C02E2600068C26801FA03F3E5
:100538001343C3605DF8044B704710B404690B683B
:10054800012B09D001684B690122A24023EA02036A
:100558004B615DF8044B704701684A6903FA04F47B
:1005680022434A61F5E738B5054602240CE005F157
:1005780014012846FFF77CFF012303FA04F22B89B4
:1005880023EA02032B8101342B893BB3062C25D89F
:10059800234113F0010FF6D0022CE8D0032C0BD026
:1005A800042C0FD0052C13D0062CE5D105F124011D
:1005B8002846FFF7C2FFDFE705F118012846FFF7D5
:1005C800A6FFD9E705F120012846FFF776FFD3E714
:1005D80005F11C012846FFF784FFCDE71BB1062C67
:1005E80003D0012000E0012038BD0020FCE70B68A3
:1005F800C360704770B504460D46FFF7F3FE064624
:1006080008B9304670BD29462046FFF7F0FF294655
:100618002046FFF701FF2046FFF7BAFE05460028EF
:10062800EFD0E168226901239340074A32F81100AC
:10063800034322F8113023890BB92E46E1E72046FF
:10064800FFF791FF0646DCE7B801002008B54368CC
:10065800012B01D9002008BDFFF7CCFFFBE70B6891
:100668000361704770B504460D46FFF7C9FE06469C
:1006780008B9304670BD29462046FFF7F0FF2046EE
:10068800FFF786FE05460028F3D0E16822690123BA
:100698009340074A32F81100034322F811302389A6
:1006A8000BB92E46E5E72046FFF75DFF0646E0E773
:1006B800B801002008B54368012B01D9002008BD06
:1006C800FFF7D0FFFBE70B684361704730B583B095
:1006D80004460D46FFF75CFE30B9238943F0040356
:1006E8002381012003B030BD01238DF807300DF1BF
:1006F800070229462046FFF7D1FEF2E738B504463F
:100708000D46FFF7E0FF29462046FFF7DFFF0120EF
:1007180038BD08B54368012B01D9002008BDFFF793
:10072800EDFFFBE70B688361704738B504460D465B
:10073800FFF72EFE28B9238943F0080323810120FF
:1007480038BD29462046FFF7E2FEF8E738B50446EB
:100758000D46FFF7E7FF29462046FFF7E6FF012091
:1007680038BD08B54368012B01D9002008BDFFF743
:10077800EDFFFBE70B680362704738B504460D468A
:10078800FFF706FE28B9238943F0100323810120CF
:1007980038BD29462046FFF790FEF8E738B50446ED
:1007A8000D46FFF7E7FF29462046FFF7E6FF012041
:1007B80038BD08B54368012B01D9002008BDFFF7F3
:1007C800EDFFFBE70B68C361704738B504460D467B
:1007D800FFF7DEFD28B9238943F020032381012098
:1007E80038BD29462046FFF77CFEF8E738B50446B1
:1007F8000D46FFF7E7FF29462046FFF7E6FF0120F1
:1008080038BD08B54368012B01D9002008BDFFF7A2
:10081800EDFFFBE70B684362704738B504460D46A9
:10082800FFF7B6FD28B9238943F04003238101204F
:1008380038BD29462046FFF780FEF8E738B504465C
:100848000D46FFF7E7FF29462046FFF7E6FF0120A0
:1008580038BD08B54368012B01D9002008BDFFF752
:10086800EDFFFBE7FEE7F8B504460F4616461D46C2
:10087800FFF7B2FD39462046FFF7E8FE314620462D
:10088800FFF747FF29462046FFF7E3FF0699204672
:10089800FFF710FF07992046FFF7B3FF0899204696
:1008A800FFF787FF09992046FFF75BFF2046F8BD51
:1008B800012800D070474FF6FF739942FAD110B55E
:1008C8008CB0002305930122069207920522089214
:1008D800022209920A930B930A4C0BAB03930AABBF
:1008E800029309AB019308AB009307AB06AA05A9CD
:1008F8002046FFF7B8FF044A0449204600F037F8BD
:100908000CB010BDC8010020000000203103000811
:1009180008B54FF6FF710120FFF7CAFF08BD0000B8
:10092800DFF830D00C480D490D4A002302E0D458B6
:10093800C4500433C4188C42F9D30A4A0A4C002321
:1009480001E013600432A242FBD3FFF773FCFFF708
:1009580089FF7047000002200000002004000020EA
:10096800A809000804000020F0010020FEE70B465B
:1009780001461846FFF750BCF8B500BFF8BC08BCE4
:100988009E467047F8B500BFF8BC08BC9E46704745
:04099800200000201B
:08099C0001020008190900081E
:0409A400D90100086D
:0409A800000000004B
:0400000508000929BD
:00000001FF
