:020000040800F2
:1000000000000220D11800081D1900081D19000861
:100010001D1900081D1900081D1900080000000026
:100020000000000000000000000000001D19000892
:100030001D190008000000001D1900081D19000806
:100040001D1900081D1900081D1900081D190008B8
:100050001D1900081D1900081D1900081D190008A8
:100060001D1900081D1900081D1900081D19000898
:100070001D1900081D1900081D1900081D19000888
:100080001D1900081D1900081D19000800000000B6
:100090000000000000000000000000001D19000822
:1000A0001D1900081D1900081D1900081D19000858
:1000B0001D1900081D1900081D1900081D19000848
:1000C0001D1900081D1900081D1900081D19000838
:1000D0001D1900081D1900081D1900080000000066
:1000E0001D1900081D1900081D1900080000000056
:1000F0000000000000000000000000001D190008C2
:10010000000000001D1900081D1900081D19000835
:1001100000000000000000000000000000000000DF
:100120001D1900081D1900081D1900081D190008D7
:100130001D19000800000000000000000000000081
:100140000000000000000000000000001D19000871
:100150001D1900081D1900081D1900081D190008A7
:100160001D1900081D190008000000000000000013
:10017000000000000000000000000000000000007F
:10018000000000001D190008000000000000000031
:080190001D1900081D190008EB
:1001980010B5054C237833B9044B13B10448AFF3B9
:1001A80000800123237010BD7000002000000000B3
:1001B800B026000808B5034B1BB103490348AFF349
:1001C800008008BD0000000074000020B026000870
:1001D80010F8012B11F8013B012A28BF9A42F7D0E9
:1001E800D01A704703685A004CBF43F0004323F00D
:1001F80000431844704700BF2DE9F84329B34F1E48
:10020800044615463E464FF0000808EB060101EB90
:10021800D171491004EBC1094846FFF7E3FF0346D3
:10022800C80008308F42204409D0AB4209D8FFF7F4
:10023800D9FF0138A8420AD201F10108E5E7AB422B
:1002480005D9884501D04E1EDFE74FF00009484622
:10025800BDE8F883012807D0022807D0044B0028FE
:100268000CBF184600207047024870470248704784
:1002780035090008390900083D09000830B5234B45
:1002880083B004468D1E3BB301A92846AFF3008016
:10029800E8B101992A46FFF7AFFF0146B8B1FFF769
:1002A800A1FF4B68A064012B2CD0002B01F10400A6
:1002B80024DBFFF797FF0023C4E913030368002B2F
:1002C80011DBFFF78FFF2061002003B030BD002352
:1002D8000920236103B030BD0D4B0E49C91AC9105E
:1002E80018460191D6E7C3F30360FFF7B3FF002870
:1002F800206114BF0020092003B030BD0123C4E9E8
:100308001303DBE7002323610520DEE7000000007C
:1003180010290008C82A00080368DA0710B504463F
:1003280006D49B0700F1480009D500F05BFC236860
:10033800590709D51A070ED5DB0613D510BD00F0ED
:1003480049FC23685907F5D404F1D00000F052FCA9
:1003580023681A07F0D404F5A87000F053FC23684A
:10036800DB06EBD404F5E870BDE8104000F08EBC65
:10037800092070470346006800B11844704700BF61
:10038800704700BF70B504460E46316C2046FFF733
:1003980075FF054688B9326C626123693246214689
:1003A800012098470828F0D0072806D12846316C44
:1003B800FFF7E6FF301D00F001FC01F0CFFF00BFA2
:1003C8002DE9F0470D1DD0F80C80D0F8189007469D
:1003D80014460FCDADF5727D0DF10C0CACE80F0095
:1003E8000FCDACE80F000FCDACE80F0095E80F007B
:1003F80002AE4FF0000E8CE80F00C6F800E020E0D7
:10040800336C7B614FF4F07231467AA802F03EF902
:100418003B697AAA394650469847889B73642146B7
:10042800CDE9006905463B463A460120C0470446E7
:10043800E0B94FF4F0727AA9304602F027F9082D96
:100448001AD1316C3846FFF719FF09345FFA84FA7C
:1004580005460028D4D0B36B73643A46CDE90069E9
:100468003B464AF010010120C04700B10925284643
:100478000DF5727DBDE8F087072DF7D12046316C68
:10048800FFF77EFF03A800F099FB00BF406C7047A0
:10049800F0B5CB6B0B6401F1040C0E460546BCE8C5
:1004A8000F00F9B001AC0FC4BCE80F000FC4BCE8E2
:1004B8000F000FC49CE80F004FF0FF3784E80F00CF
:1004C800009706E02B696A4629469847082804469B
:1004D80008D110992846FFF7D1FE0028F2D009204C
:1004E80079B0F0BD6846FFF717FF062CF7D1314603
:1004F8002846FFF747FF00BFC160D96B82611964C6
:10050800002219465CE700BF70B5C66843690B64F2
:10051800AEB903690A4604460D46014602209847CB
:10052800072805D008280FD129462046FFF72AFFBB
:100538003046296CFFF724FF281D00F03FFB0122FD
:10054800FFF73EFF01F00AFF01F008FFC2681AB189
:10055800CA6B0A64002233E79AE700BF704700BFFE
:10056800836801460BB1012018477047012912D052
:1005780009D873B90F2A0CD800EB820218465368C1
:10058800009A136070470339012994BF01200220A3
:100598007047022070470846704700BF00B585B015
:1005A8000A46002303A900911946FFF7DFFF0398C5
:1005B80005B05DF804FB00BF012912D009D873B952
:1005C8000F2A0CD800EB8200009A12684260184685
:1005D80070470339012994BF012002207047022087
:1005E80070470846704700BF10B584B0002303ACBD
:1005F800039200940A461946FFF7DEFF04B010BDC7
:1006080070B5D36B136402F1040C05460C46BCE8C4
:100618000F00ADF50E7D0DF15C0EAEE80F00BCE8E5
:100628000F00AEE80F00BCE80F00AEE80F009CE832
:100638000F004FF0FF368EE80F00169610E0FFF718
:10064800D3FF214616A8A847034616AA69460820DC
:1006580083B9049B9847052806460CD0092809D079
:1006680026996846FFF70AFE03466A460C2116A833
:10067800002BE4D0092616A8FFF74EFE30460DF5EC
:100688000E7D70BD2DE9F04FCC6C89B01E4654F834
:10069800043B06940D46174600F00308002E79D057
:1006A8001A0C1B0405938DF81D200223D2B204EB0B
:1006B80082048DF81C302B6DB8F1020F08BFAC6BAB
:1006C80013F001030CD005A9384600F079FB18B9DE
:1006D800082009B0BDE8F08F092009B0BDE8F08F07
:1006E800D4F800A0BAF1000FEDD0019300F0080390
:1006F8000293022E4AD0B4F800A0B4F80290043451
:10070800AB6C29F0010B0F2138469B44FFF746FFDD
:10071800834539D82AF001039B44834594BF0020C0
:1007280001204FEA490303F002030AF0010A43EAF1
:100738000A03012B49D0022B32D0002BCCD1B8F1BF
:10074800000F02D0002840F0CD800434D4F800A077
:10075800BAF1000FCDD105A9384600F031FB0028C9
:10076800BAD1019B002BB3D00F213846FFF716FFF3
:100778000E2102463846FFF737FF38466A4A0F21EE
:10078800FFF732FF0720A8E70020CAE7D4F8049053
:100798000834B5E71B0205930323ADF81C308AE73C
:1007A800236823F0004BB8F1000F45D128B1029A15
:1007B800002A5CD0BBF1000F74D0002B00DA04349F
:1007C8000BF1010B04EB8B04C0E7B8F1000F19D152
:1007D800B0B163682268991C4FEAD2723FF47CAFCB
:1007E80005F158010133049100F09080201DFFF7B6
:1007F800C1FD04AB0146284601F0CCF800285BD1C6
:100808000834A3E70D213846D5F82090FFF7C6FE37
:100818008145F5D1AB6A9C42F2D12046FFF7E2FC54
:100828000F2102463846FFF7DFFE38462A460021E8
:10083800FFF7DAFE072050E70D213846D5F820905B
:10084800FFF7ACFE814501D02368B6E7AB6A9C424E
:10085800FAD104230022C5E90B23E318C5F828B010
:100868006B632368002B59DB01230193A8E705F18B
:100878005803CDF80C8004F1040AB04691461E4690
:100888000EE050460496FFF775FD0022014604ABC2
:10089800284609F101090AF1040A01F07BF8E0B9D8
:1008A800D945EED10D213846FFF778FE049BAC629E
:1008B800C5E90803062010E781460D213846FFF7F1
:1008C8006DFEB9F1020F286225D12B46049A43F830
:1008D8002C2F6B62AC620620FFE646462368DDF8E3
:1008E8000C806AE72046FFF77DFC04340246AC63BF
:1008F8002846144601F0ACF800283FF4EDAE38461F
:1009080022460F21FFF770FE0720E6E60D21384644
:10091800FFF744FE2862049B6B62DBE70BF10100E2
:1009280004EB80007AE700BF2D2300080023A9E626
:100938000123A7E60223A5E62DE9F0430646C3B046
:1009480015461C46042900F2BF80DFE801F09E57D7
:10095800BD2D0300002C40F0B780102A00F2B480AF
:100968000368D80600F1F98020AF384600F098F9FE
:10097800B46B394600234FF0010C0CFA03F22A42FB
:10098800204603F1010303D050F8042B0A60044603
:10099800042B01F10401F0D13846B46300F076F974
:1009A800002043B0BDE8F083032C40F08D8094B262
:1009B80004EB1243102B4FEA124500F285800368BE
:1009C8001F0700F1D28020AF384600F03DF9B26B26
:1009D80007EBC50154B10B46D01A01EBC401E40082
:1009E8001D5843F8045B8B42FAD122443846B2635F
:1009F80000F008F9002043B0BDE8F083012C4FEA6D
:100A0800124895B25CD0052C5ED108EB0509B9F106
:100A1800200F59D8B8F10F0F79D9A946002D40F009
:100A28008A80B36B6DB320AF4FF0000907EBC8079E
:100A3800043F03EBC50553F8041B47F8041FAB42FA
:100A4800F9D1B9F1000F0FD06F464146102938BFD0
:100A5800102107EBC101843903EBC90553F8040BD6
:100A680041F8040FAB42F9D1012C00F08680B8F1AF
:100A78000F0FB56347D9B9F1000F02D0684600F0EF
:100A8800B9F8002043B0BDE8F083ECB9806B234689
:100A98001FFA82FC0124371D04FA03F212EA0C0F34
:100AA800014604D051F8042B47F8232008460133A7
:100AB800102BF1D115F40055E3D1B063284604E0BA
:100AC80008EB0503102B03D9022043B0BDE8F083DF
:100AD800B8F10F0FF8D83368DA0706D5304623F097
:100AE800030340F8483B00F079F820AF384600F09F
:100AF80075F8B36B002D97D11D460435B56338469C
:100B080000F068F8BDE720A800F06CF8B3E7B9F189
:100B1800100F40D9A9F110093368D90708D523F077
:100B28000103304643F0020340F8483B00F05EF80A
:100B3800B9F1000F32D033685A0720D4B8F10F0F3B
:100B480025D96F463846C8F1100500F057F8002D32
:100B5800B36B7FF77AAF20AF68E723F010033360F9
:100B680006F5E87000F09CF8FEE623F00803036041
:100B780000F5A87000F068F825E720AFBDE730461B
:100B880023F0040340F8D03B00F038F8D6E720A85B
:100B980000F02CF8D5E74FF00009BDE7B8F10F0FCA
:100BA8003FF63FAF20AF384600F020F8B36B002D7A
:100BB8007FF43AAF384600F015F862E700F13401E7
:100BC80091E838009C46A6464CF8045D90E8FF0F73
:100BD800E54600BD90EC210B704700BF80EC210B6F
:100BE800704700BF90EC200B704700BF80EC200BD3
:100BF800704700BFD0EC200B704700BFC0EC200B43
:100C0800704700BFF0EC0201F0EC0211F0EC022199
:100C1800F0EC0231F0EC0241F0EC0251F0EC026130
:100C2800F0EC0271F0EC0281F0EC0291F0EC02A120
:100C3800F0EC02B1F0EC02C1F0EC02D1F0EC02E110
:100C4800F0EC02F1704700BFE0EC0201E0EC0211A9
:100C5800E0EC0221E0EC0231E0EC0241E0EC025170
:100C6800E0EC0261E0EC0271E0EC0281E0EC029160
:100C7800E0EC02A1E0EC02B1E0EC02C1E0EC02D150
:100C8800E0EC02E1E0EC02F1704700BFB0FC01814A
:100C9800B0FC0191B0FC01A1B0FC01B1704700BFEC
:100CA800A0FC0181A0FC0191A0FC01A1A0FC01B164
:100CB800704700BFEC4600B52DE900502DE9FF1F35
:100CC8004FF000032DE90C0001A9FFF7E1FBDDF867
:100CD80040E012B0704700BFEC4600B52DE9005067
:100CE8002DE9FF1F4FF000032DE90C0001A9FFF7C4
:100CF8000BFCDDF840E012B0704700BFEC4600B5D1
:100D08002DE900502DE9FF1F4FF000032DE90C00DD
:100D180001A9FFF71BFCDDF840E012B0704700BFE7
:100D2800EC4600B52DE900502DE9FF1F4FF00003F8
:100D38002DE90C0001ABFFF7DFFBDDF840E012B056
:100D4800704700BFEC4600B52DE900502DE9FF1FA4
:100D58004FF000032DE90C0001AAFFF751FCDDF864
:100D680040E012B0704700BF027A03467AB9427A6F
:100D7800A2B14168013A10B44272086803220C1DFE
:100D88001A7202025C60000E10BC1A60704700689C
:100D9800013A1A7202021A60000E7047B0207047BA
:100DA80000B585B0002303AA009219460C22FFF76C
:100DB800DDFB039805B05DF804FB00BFF0E700BF5A
:100DC8002DE9F043054685B00E464FF00008304641
:100DD800FFF7CAFFB028044600F0BA80070620D5FE
:100DE80000F0F003802B4DD0902B36D0A02B60D094
:100DF800B02B74D0C02B00F08B8000F0F803D02B00
:100E08000BD100F007020132052342F40022012130
:100E18002846FFF791FD0028D9D0092005B0BDE884
:100E2800F0838300DBB21F1D0DF10C090023194666
:100E3800CDF800900D222846FFF798FB039BCDF8CC
:100E4800009060064CBFDF1BFF1800230D221946D7
:100E580028460397FFF7B0FBB9E700F00D030D2B09
:100E6800DBD003AF002300F00F0219460097284695
:100E7800FFF77CFB002300970D2219462846FFF751
:100E88009BFBA4E73046FFF76FFF24022043B0F531
:100E9800004FC2D004010023A2B219462846FFF72A
:100EA8004BFD0028B9D114F4004F18BF4FF00108CA
:100EB8008DE7C24302F007034FF47F621A4101072E
:100EC80002F47F624FF0000348BF42F480421946A3
:100ED8002846FFF731FD00283FF479AF9DE7B12898
:100EE8003BD0B22800F09380B32841D000F0FC0337
:100EF800B42B92D000F007020132012342F4002201
:100F080019462846FFF718FD00283FF460AF84E72C
:100F1800C6284AD0C72854D000F0F803C02B63D0A5
:100F2800C82868D0C9287FF478AF3046FFF71CFF7F
:100F3800020300F00F0002F4702201300243012185
:100F480005232846FFF7F8FC00283FF440AF64E784
:100F5800B8F1000F18D0002060E73046FFF704FF13
:100F6800024600283FF459AF10F0F003C8D054E708
:100F78003046FFF7F9FE020300F00F03013302F4D5
:100F880070221A430123BBE703AC43460E224146B5
:100F980000942846FFF7EAFA009443460F22414698
:100FA8002846FFF709FB404638E73046FFF7DCFEE6
:100FB800020300F00F03013302F470221A430323E3
:100FC8009EE73046FFF7D0FE024600283FF425AFE3
:100FD80010F0F0037FF421AF04212846FFF7ACFCA2
:100FE80000283FF4F4AE18E700F00F0201320323A3
:100FF80042F4202284E73046FFF7B6FE00F0F00204
:1010080000F00F031032013343EA023297E700235E
:101018000DF10C090D221946CDF800902846FFF76E
:10102800A5FA3046FFF7A0FE02064FF002040CD5E1
:10103800039B00F07F00A040184403903046FFF760
:1010480093FE030604F10704F2D4039BCDF8009045
:1010580000F07F02A24003F501731A4400230392B3
:1010680019460D222846FFF7A7FAB0E610B5C26C5C
:10107800536884B04FF0030C08321C0208461B0E5C
:1010880001A9019402928DF80CC08DF80D30FFF77C
:1010980097FE04B010BD00BF08B5FFF78FFE806C47
:1010A80008BD00BF08B5FFF789FEC06CC3790233DD
:1010B80000EB830008BD00BFF0B589B004464FF0CF
:1010C800FF330360436000238360C36003614361AF
:1010D8008361C36180F8203080F82130436230207A
:1010E80000F0D5FF054604F10C0304F1100204F1E9
:1010F800140104F1180604F11C0704F1200C04F192
:10110800210ECDF818E0CDF814C00497039602918B
:101118000192009304F10803221D214600F096F97C
:1011280005E03021284600F0FBFB00F00FFC65626B
:10113800204609B0F0BD38B50446456A35B12846A1
:1011480000F099F93021284600F0EAFB204638BD26
:1011580008B500F071FA08BD08B5CB691B68012B0A
:1011680003D90B6A187810B1FEE7FFF7F1FF08BD45
:1011780008B50B4601461846FFF7EEFF08BD08B54F
:1011880000F092FA08BD08B5CB691B68012B03D99A
:101198000B6A187810B1FEE7FFF7F1FF08BD08B534
:1011A8000B4601461846FFF7EEFF08BD00B583B0B1
:1011B80001238DF807300DF1070200F0C6FA03B0DD
:1011C8005DF804FB08B5CB691B68012B03D90B6AD2
:1011D800187810B1FEE7FFF7E9FF08BD08B50B4620
:1011E80001461846FFF7EEFF08BD0368012B04D03F
:1011F8000B6A00221A70012070470B6A01221A70CC
:10120800F9E708B5CB691B68012B03D90B6A187875
:1012180010B1FEE7FFF7E9FF08BD08B50B46014628
:101228001846FFF7EEFF08BD0368012B04D04B6A90
:1012380000221A70012070474B6A01221A70F9E7E0
:1012480008B5CB691B68012B03D90B6A187810B154
:10125800FEE7FFF7E9FF08BD08B50B46014618464B
:10126800FFF7EEFF08BD10B44B681868CC6AE36856
:1012780040000322824023EA0203E360CA6AD3687B
:10128800D3605DF8044B70474B6902681A6001200F
:10129800704710B44B681C680268CB6A58684FF0F6
:1012A800010C0CFA04FC20EA0C005860C96A4B686F
:1012B800A24013434B605DF8044B7047F8B50546F0
:1012C8000C46FFF7E1FF064608B93046F8BD204650
:1012D80000F0E4F8074630B994F8283043F00403E6
:1012E80084F82830F1E721462846FFF7D2FF3E462A
:1012F800EBE708B5FFF7E2FF08BD08B5CB691B6847
:10130800012B03D90B6A187810B1FEE7FFF7F1FF3C
:1013180008BD08B50B4601461846FFF7EEFF08BDA5
:101328000B6902681A600120704710B44B6818688E
:10133800CC6AA36840000322824023EA0203A36028
:10134800CA6A936893605DF8044B7047F8B5054620
:101358000C46FFF7E5FF064608B93046F8BD2046BB
:1013680000F09CF8074630B994F8283043F0080399
:1013780084F82830F1E721462846FFF7D6FF3E4695
:10138800EBE708B5FFF7E2FF08BD08B5CB691B68B6
:10139800012B03D90B6A187810B1FEE7FFF7F1FFAC
:1013A80008BD08B50B4601461846FFF7EEFF08BD15
:1013B8008B6902681A600120704710B44B681C687A
:1013C8000368012B09D0C96A4B690122A24023EAAC
:1013D80002034B615DF8044B7047C96A4A6903FA16
:1013E80004F422434A61F5E7F8B505460C46FFF7D1
:1013F800DFFF064608B93046F8BD204600F04EF833
:10140800074630B994F8283043F0100384F82830A0
:10141800F1E721462846FFF7D0FF3E46EBE708B53F
:10142800FFF7E2FF08BD08B5CB691B68012B03D99C
:101438000B6A187810B1FEE7FFF7F1FF08BD08B591
:101448000B4601461846FFF7EEFF08BD01604260F3
:101458008360009BC360019B0361029B4361039B04
:101468008361049BC361059B0362069B436200235F
:1014780080F828307047704703681B68B3F1FF3F56
:1014880001D1002070470120704743681B68B3F101
:10149800FF3F01D1002070470120704710B5044676
:1014A800FFF7F3FF10B12046FFF7E6FF10BD00007D
:1014B8000368B3F1FF3F0DD00A68B2F1FF3F0BD0CC
:1014C800074931F8133023FA02F212F0010F05D15F
:1014D80000207047002070470020704701207047A7
:1014E8008C00002008B54968FFF7E2FF08BD08B581
:1014F8000B4601461868FFF7DBFF08BD03685BB1C0
:10150800012B0BD0022B0BD0032B0BD0042B01D0BB
:1015180005487047054870470548704705487047B3
:101528000548704705487047001C024000100240FB
:10153800000002400004024000080240000C024083
:101548000B6802681A6001207047000038B50C4625
:101558000D682846FFF7D2FFE06204490B6B286844
:101568000122824013430B6338BD00BF003802409C
:101578004B6802681A600120704710B44B681B68FA
:101588000068CC6A22685B004FF0030C0CFA03FC7D
:1015980022EA0C022260C96A0A6800FA03F31343BC
:1015A8000B605DF8044B704770B5054600240EE0EB
:1015B8002946A868FFF7E1FF012303FA06F295F828
:1015C800283023EA020385F828300134E4B295F87C
:1015D800283023B3042C22D82646234113F0010FC8
:1015E800F3D0002CE4D0012C0AD0022C0DD0032C0F
:1015F80010D0042CE0D12946A869FFF7DEFEDBE70E
:101608002946E868FFF72FFED6E729466869FFF7FD
:1016180040FED1E729462869FFF787FECCE70BB9DA
:10162800052C06D9EB6906221A602B6A187808B1CE
:10163800FEE7012070BD000038B505460C46FFF7EF
:1016480051FF30B1E36905221A60236A1D7835B16C
:10165800FEE721462846FFF773FF054608B92846E6
:1016680038BD21462068FFF771FF2046FFF716FFB7
:1016780002460028F3D023681868636819680123B4
:101688008B40084931F810502B4321F8103094F85A
:1016980028300BB91546E2E72046FFF785FF0546D7
:1016A800DDE700BF8C00002070B505460C46FFF74B
:1016B8001EFF30B1E36905221A60236A1D78DDB187
:1016C800FEE721462846FFF753FF0546A0B16668A6
:1016D8002046FFF7E3FE844670B123681968326834
:1016E80001239340084A32F81100034322F81130CD
:1016F80094F8283013B96546284670BD2046FFF790
:1017080053FF0546F8E700BF8C0000208B6802688D
:101718001A6001207047F8B505460C46FFF7F6FF3A
:10172800064650B12046FFF7B9FE074638B994F887
:10173800283043F0010384F828303046F8BD2146AC
:101748002846FFF71AFF3E46F7E708B513781BB19E
:101758000368023B012B02D9FFF7DDFF08BDCB6907
:1017680009221A600B6A18780028F7D0FEE7FEE70E
:10177800F8B504460F4616461D46FFF79DFC394648
:10178800606AFFF74AFD3146606AFFF7F1FC2946B7
:10179800606AFFF723FD0699606AFFF750FE079914
:1017A800606AFFF7FCFC0899606AFFF755FD099924
:1017B800606AFFF7F6FD0A99606AFFF7AAFD04E080
:1017C8002046FFF7B8FC00F0C1F82046F8BD00003D
:1017D800012800D070474FF6FF739942FAD170B5CF
:1017E8008EB0174C2046FFF767FC164E164D324652
:1017F8002946204600F08FF801230693002207921D
:101808000893099305210A910B9302230C930D92D7
:101818000E4C0DAB04930CAB03930BAB02930AABCA
:10182800019309AB009308AB07AA06A92046FFF766
:101838009FFF32462946204600F06DF80EB070BD75
:101848009C000020000000203F110008C400002078
:1018580008B54FF6FF710120FFF7BAFF08BD012058
:10186800704708B500F090FD162303604FF0FF3075
:1018780008BD08B54FF0FF31FFF7F3FFFEE70000A2
:1018880010B503460C4A0D490D48006840B10C4894
:1018980000680344521A934206D8094A136010BDDF
:1018A8000748084C0460F2E700F06EFD0C23036063
:1018B8004FF0FF30F3E700BF0000022000040000F3
:1018C800EC00002020010020DFF830D00C480D4942
:1018D8000D4A002302E0D458C4500433C4188C4283
:1018E800F9D30A4A0A4C002301E013600432A242E9
:1018F800FBD300F04FFDFFF73AFF704700000220CE
:101908000000002070000020D82A00087000002085
:1019180020010020FEE70B460146184600F026BDD0
:1019280000F0D2BC38B5084C4FF41E652846E56077
:1019380000F054FDA06010B9E060606038BD00237D
:10194800606005604360F9E7F00000201EB400F015
:101958009CF81EBCFFF7C0F90378472B17D14378D2
:101968004E2B14D18378552B11D1C378432B0ED12C
:101978000379432B0BD143792B2B08D183792B2B5C
:1019880005D1C07901288CBF0020012070470020B4
:10199800704700002DE9F3411D460378472B0E469A
:1019A8000246C17913D143784E2B10D18378552B39
:1019B8000DD1C378432B0AD10379462B07D143793C
:1019C8004F2B04D18379522B01D1002931D01046F5
:1019D800FFF7C2FF80F00100C4B20023002001908D
:1019E80053BB5CBB01290ABF52F8203CA2F120037B
:1019F800783B012908BF52F8202C1C6818BF5832C0
:101A08000192236820469B689847C8B1019B1B68D0
:101A180001930227336801AAD3F8108021460123D5
:101A28003046C04770B1019B2B60384602B0BDE814
:101A3800F08101230C46D1E7034CE2E7034CE0E7D1
:101A48000127E7E70746F0E7C8260008D026000880
:101A580010B5044600F078F802462046A4F12001AB
:101A6800FFF77AFF60B154F8043C0133012B44F8C6
:101A7800043C03D1936844F8083C9160012010BDF0
:101A88009368002BF9D000F0EBFA10B500F05CF881
:101A9800826801460AB900F0E3FA02F12004204600
:101AA800FFF75AFF40B1D369013BD36113B990697D
:101AB80088609361204610BD8860FBE70378472B58
:101AC80017D143784E2B14D18378552B11D1C37875
:101AD800432B0ED10379432B0BD143792B2B08D100
:101AE80083792B2B05D1C07901288CBF00200120D8
:101AF80070470020704738B5044600F025F805689F
:101B080002462046A4F12001FFF7D8FF28B90DB1FD
:101B180000F0A6FA1160284638BD54F80C3C002B9A
:101B2800B4BFC3F10103013344F80C3C53688D4240
:101B380003F1FF33536020461CBF44F8105C11606A
:101B4800656AFEF70BFDE6E70048704700010020D4
:101B580030B500231A4610F8015B05F07F04944065
:101B680023432C0602F10702F5D40B6030BD30B5D3
:101B780000231A4610F8014B04F07F0595402B43CB
:101B8800250602F10702F5D41F2A06D8640642BFCB
:101B98004FF0FF3404FA02F213430B6030BD5028B3
:101BA8002DE9F3410646884615461F4608D10332FB
:101BB80022F0030050F8044B3C6002B0BDE8F0810D
:101BC80000F00F030C2B2ED8DFE803F025071D25A6
:101BD800292D2D2D2D182125290001A92846FFF78B
:101BE800B7FF019C002CE7D006F07003102B08BF4C
:101BF800A8464444330648BF2468DDE701A92846BF
:101C0800FFF7B5FFEDE7284630F8024BEAE728462C
:101C180030F9024BE6E7284650F8044BE2E728463D
:101C280050F8084BDEE700F099FB08B50346FF2B98
:101C3800084610D003F07002302A12D007D8202AA4
:101C48000BD002D813F0600F05D000F087FB402AB4
:101C58000BD0502AF9D1002008BDBDE8084000F09B
:101C680012BDBDE8084000F00BBDBDE80840FFF715
:101C780013BA13B50C4601462046CDE90032FFF7EA
:101C8800D4FFDDE900320146204602B0BDE810402D
:101C9800FFF785BF73B50C461546064628B3FFF710
:101CA800FBF9034620462B6010F8011BFF291ED0C4
:101CB80002462B1D3046FFF7DCFF10F8013B2B7561
:101CC800FF2B16D010232B7501A9FFF741FF019BAD
:101CD8000344EB6010F8013B6B7501A9FFF738FF6F
:101CE800019B03442B6102B070BD0346DAE76B60C9
:101CF800E3E70023EDE71FB503AB009300230A4693
:101D08001946FEF733FC039805B05DF804FB0000A4
:101D18002DE9F04F91B00023059300F00303012B48
:101D280006460C4617460ED0022B03D0002B3BD19B
:101D380001073BD539462046FFF798F990B30920AB
:101D480011B0BDE8F08F020706D40D6A38460D21A0
:101D5800FFF7D1FF85422BD00220002306F00806AA
:101D68000DF1280A0643CDF800A00C221946384682
:101D78000A94FEF721FC062E1CD1D4F83080D4E951
:101D88000A59B8F1000F0CBF4FF0010B4FF0030BCD
:101D980016F0080600F00781BBF1010F40F0FF8044
:101DA80000F05EF90820CBE700F0D8FA0120D4E76C
:101DB8000620D2E73846FFF775F981460028B9D0E2
:101DC800524601463846FFF765FF394605469DF8F5
:101DD8003C00FFF72AFF0F210C903846FFF78BFFD6
:101DE80020F0010808F1FF380E9BAB4240F2BF809B
:101DF8002A469DF83D1006AB0020FFF73AFF9DF8F4
:101E08003D10024607AB0020FFF733FF08AB024640
:101E18009DF83D100020FFF72CFF09A9FFF798FE59
:101E28000A9B069A13444345054601D90E9DDBE7F4
:101E3800079A13444345D7D9DDF82080B8F1000F3D
:101E480001D00B9B9844099D15B10E98013D05449E
:101E5800B8F1000F3FF46EAF002D00F0F28016F0DD
:101E68000803029334D0472323704E23637055230D
:101E7800A3704323E370462323714F2363715223D6
:101E8800A3710023E3714FF0000B07A92846FFF761
:101E98006EFE08A90390FFF76AFE0799002963D030
:101EA8003ADD9DF83C00FF2832D000F00703042BF0
:101EB8003FF67AAF01A252F823F000BF1D1F0008B9
:101EC800B11D0008EB1E00081D1F0008151F0008A3
:101ED800E379012B0CBF54F8203C04F15803059317
:101EE800D1E702250D9A09AB05FB11220C99FFF7E2
:101EF80056FE099931B15CB305AB00222046FFF7C5
:101F080049FD28B3079D4FF0030B34E00825E9E7A6
:101F18000025E7E70425E5E7C1F17F5101F57F11C9
:101F28000D9B01F57F513F3103EB8105BCB1029A4E
:101F3800AAB9059B0993043D55F8041F0029E1D06F
:101F480009AB002229442046FFF724FD0028F3D0DE
:101F5800089D002D71D0039B2B441D4695E753F82F
:101F68002130002BF4D1CDE74FF0010BF0E700252D
:101F7800A8464FF0010BF3077FF50AAFBBF1020F3C
:101F88003FF4D8AE0D213846059EFFF7B4FEC4E9EC
:101F98000A59C4E90806C4F830800620D0E6002DA6
:101FA80022DA00F06FF8BBF1010F02D1204600F0F1
:101FB800AAF9002D18DA524649463846FFF76AFE54
:101FC8009DF83C003946FFF730FE0D9A0C90EB4324
:101FD80002EB830353F826200AB10136FAE70422FC
:101FE800C4E90A60C4E90C23002309AE1A4619465D
:101FF800009638460994FEF7DFFA002319460122B5
:10200800009638460995FEF7D7FA0F213846FFF7AC
:1020180072FE00F0010040EA0800002309900096D3
:102028000F2219463846FEF7C7FABBF1020F02D154
:102038002046FFF70DFD072082E6BBF1000F3FF4B5
:1020480079AE4FF0020B96E708B5804700F086F9A5
:10205800024B1868BFF35B8F704700BF0800002071
:1020680008B5FFF7F5FFFFF7EFFF08B58047FFF763
:10207800F7FF0000024B1868BFF35B8F704700BF83
:102088000400002008B5FFF7F5FFFFF7EEFF012871
:1020980038BF012010B50446204600F09FF930B93A
:1020A80000F054F908B900F059F98047F4E710BD79
:1020B80010B5034B0360044600F0B2F8204610BD8B
:1020C8005827000810B50446FFF7F2FF20460C21F8
:1020D800FFF726FC204610BDF7B5089F9742054636
:1020E8000E4614460AD0A86802680897156A314651
:1020F8002246AC4603B0BDE8F0406047194601935C
:1021080000F058F8019B0028EDD0062003B0F0BD80
:102118002DE9F14F0D461946DDE90A4BDDE90CA61C
:1021280081461746984600F045F890B1002D346076
:10213800377109DB61198A450CBF06210121B1718C
:10214800002001B0BDE8F08F0235F9D10123B37149
:10215800F6E7544506D15946484600F02BF808B131
:102168007771EDE7D9F808000368CDE90CA6CDE949
:102178000A4BDC693A4643462946A44601B0BDE805
:10218800F04F60472DE9F04107460C4615461E46BC
:1021980000F079F848B9B86803689F692A46334659
:1021A8002146BC46BDE8F0416047BDE8F081704774
:1021B80000207047814208B50ED0406803782A2B6A
:1021C8000CD049680B782A2B08BF0131FEF700F8BC
:1021D800B0FA80F0400908BD0120FCE70020FAE7CA
:1021E8007FB500241023CDE90234036815469E69A3
:1021F80012686B46CDE90044B0479DF8043003F0FF
:102208000603062B03BF009B2B600120204604B069
:1022180070BD0098904214BF01200620704700004E
:1022280010B5034B03600446FFF7C1FF204610BDFD
:10223800CC27000810B50446FFF7F2FF2046082116
:10224800FFF76EFB204610BD2DE9F0411F46DDE982
:102258000834DDF8188098450646154607D10799D1
:10226800FFF7A8FF18B165710020BDE8F081394675
:102278003046FFF79FFF0028F6D00123C4F80080FE
:102288002571A371F0E738B515461C46FFF792FF94
:1022980020B10823E36006232560237138BD73B598
:1022A80005460C4601921E46FFF784FF50B9032EDF
:1022B80008D82368019A5B692946204602B0BDE820
:1022C8007040184702B070BD00F090B80378472BF3
:1022D80017D143784E2B14D18378552B11D1C3785D
:1022E800432B0ED10379432B0BD143792B2B08D1E8
:1022F80083792B2B05D1C07901288CBF00200120C0
:1023080070470020704710B5044648B1FFF7F3FB4B
:102318002046FFF7DBFF18B154F8140CFFF794FEC2
:10232800FFF79EFE38B50246FFF7D0FF044640B1DE
:1023380052F8184C00251046FFF7DDFB1DB1FFF7DA
:10234800A1FE0125F7E72046FFF78FFE024B18682C
:10235800BFF35B8F704700BF0C01002008B5062053
:1023680000F064F90120FFF784FA000010B5054C6D
:1023780013462CB10A4601460220AFF3008010BD77
:102388002046FCE700000000014B1868704700BFBA
:102398000C00002070B50D4D0D4C641BA4100026D8
:1023A800A64209D10B4D0C4C00F07EF9641BA41019
:1023B8000026A64205D170BD55F8043B9847013662
:1023C800EEE755F8043B98470136F2E7C82A0008BB
:1023D800C82A0008C82A0008D42A0008024B014667
:1023E800186800F077B800BF0C000020024B0146C7
:1023F800186800F003B800BF0C00002037B50029AA
:1024080044D051F8043C0190002BA1F10404B8BF5A
:10241800E41800F027F91E4A0198136833B963607D
:10242800146003B0BDE8304000F022B9A34208D9D7
:10243800256861198B4201BF19685B6849192160D9
:10244800EDE71A465B680BB1A342FAD91168551833
:10245800A5420BD1246821445418A3421160E0D14D
:102468001C685B68536021441160DAE702D90C23C9
:102478000360D6E7256861198B4204BF19685B6859
:10248800636004BF491921605460CAE703B030BDD6
:102498001001002070B50E4E0C463168054611B982
:1024A80000F08CF830602146284600F087F8431C7D
:1024B8000AD0C41C24F00304A04207D0211A2846DD
:1024C80000F07CF8013001D14FF0FF34204670BD98
:1024D800140100202DE9F041CD1C25F00305083535
:1024E8000C2D38BF0C25002D074601DBA94205D964
:1024F8000C233B6000263046BDE8F0812E4E00F0EC
:10250800B1F833681C4634BB29463846FFF7C2FF8A
:10251800431C04464DD134682646002E40D123681A
:102528003146384604EB030800F048F880453AD1B4
:10253800216803356D1A25F0030508350C2D38BFC1
:102548000C2529463846FFF7A5FF01302BD0236814
:102558002B4423600EE02268521B1ED40B2A16D986
:102568006119A342256018BF5960636808BF3160CC
:1025780062514B60384604F10B0600F079F826F0FA
:102588000706231DF21AB6D09B1BA350B3E7626857
:10259800A3420CBF32605A60ECE723466468B2E796
:1025A80034467668B9E70C233B60384600F060F89B
:1025B800A1E72560DEE700BF1001002038B5064D11
:1025C8000023044608462B60FFF75AF9431C02D142
:1025D8002B6803B1236038BD180100201F2938B5C6
:1025E80004460D4604D9162303604FF0FF3038BD6A
:1025F800426C12B152F821304BB9204600F030F845
:102608002A4601462046BDE8384000F017B8012B9D
:102618000AD0591C03D1162303600120E7E70024E0
:1026280042F82540284698470020E0E7024B01463B
:102638001868FFF7D3BF00BF0C00002038B5074D5E
:1026480000230446084611462B60FFF70AF9431C8D
:1026580002D12B6803B1236038BD00BF18010020E8
:10266800FFF7FDB8014800F009B800BF1C010020C1
:10267800014800F004B800BF1C01002070477047F3
:1026880008B5FFF76BFE08B5FFF7FAFF0A44914259
:1026980000F1FF3300D1704710B511F8014B03F872
:1026A800014F9142F9D110BDF8B500BFF8BC08BC84
:1026B8009E467047F8B500BFF8BC08BC9E467047F8
:1026C800CC270008D8260008CC270008F8260008E0
:1026D8004E31305F5F637878616269763131355F9A
:1026E8005F666F726365645F756E77696E644500D7
:1026F8004E31305F5F637878616269763131395F76
:102708005F666F726569676E5F6578636570746927
:102718006F6E4500582700082827000894270008EE
:102728004E31305F5F637878616269763132305F4D
:102738005F73695F636C6173735F747970655F69F8
:102748006E666F4500000000000000001C270008AE
:10275800B9200008CD200008B9210008B9210008D7
:10276800A7220008E92100088D2100081921000886
:10277800E1200008CC270008842700085374397426
:102788007970655F696E666F000000005827000861
:10279800A02700087C2700084E31305F5F637878F7
:1027A800616269763131375F5F636C6173735F743F
:1027B8007970655F696E666F450000000000000073
:1027C80094270008292200083D220008B9210008A2
:1027D800B9210008A7220008E92100088F22000873
:0827E800512200081B22000829
:1027F00029F5FF7FB0AB0800FFFF010C28040000A3
:1028000064046A007204000008B10181B0B0008461
:102810000000000008B10181B0B000840000000099
:1028200008B10181B0B000840000000008B101814E
:10283000B0B000840000000008B10181B0B0008495
:102840000000000008B10181B0B000840000000069
:1028500008B10181B0B000840000000008B101811E
:10286000B0B000840000000008B10181B0B0008465
:102870000000000008B10181B0B000840000000039
:1028800008B10181B0B000840000000008B10181EE
:10289000B0B000840000000008B10181B0B0008435
:1028A0000000000008B10181B0B000840000000009
:1028B00008B10181B0B000840000000008B10181BE
:1028C000B0B000840000000008B10181B0B0008405
:1028D0000000000045F4FF7FAB08B100FFFF010CD2
:1028E0000A0400001A3450005604000008B10181A7
:1028F000B0B000840000000008B10181B0B00084D5
:102900000000000008B10181B0B0008400000000A8
:10291000DCD8FF7F010000006CD9FF7FB0A90280E6
:1029200000DAFF7FB0B0A88050DAFF7F010000001E
:102930005CDAFF7FB0B0AA8090DAFF7FAE71B28020
:1029400054DBFF7F0100000050DBFF7FAB3F38808E
:10295000B0DBFF7F01000000B8DBFF7FB0B0AA80D2
:10296000F4DBFF7F01000000A0DCFF7FAA0DB28036
:102970001CDDFF7FB0AF0880BCDFFF7F01000000DF
:10298000C0DFFF7FAD3F02803CE2FF7F010000001F
:1029900018E4FF7F008404802CE4FF7F0100000026
:1029A00028E4FF7FB0AD0480CCE6FF7FB0A80380B1
:1029B000F0E6FF7F44FFFF7FF4E6FF7F48FFFF7FE5
:1029C00000E7FF7F2CFEFF7F76E7FF7F010000001E
:1029D00088E7FF7F34FEFF7F88E7FF7F38FEFF7FB9
:1029E00098E7FF7F3CFEFF7F9EE7FF7F40FEFF7F73
:1029F0009EE7FF7F44FEFF7FAEE7FF7F48FEFF7F3D
:102A0000B4E7FF7F00840280C4E7FF7F44FEFF7FBE
:102A1000D4E7FF7F48FEFF7FDAE7FF7F0100000079
:102A2000A4E8FF7FAB08B180D2E8FF7F3CFEFF7FC8
:102A3000D2E8FF7F40FEFF7FE2E8FF7F44FEFF7F9A
:102A4000E8E8FF7F010000000CE9FF7FAB08B180E0
:102A50003AE9FF7F38FEFF7F3AE9FF7F3CFEFF7FC8
:102A60004AE9FF7F40FEFF7F50E9FF7F0100000041
:102A700080E9FF7FAB08B180AEE9FF7F34FEFF7FC6
:102A8000AEE9FF7F38FEFF7FBEE9FF7F3CFEFF7FA0
:102A9000C4E9FF7F01000000E0ECFF7F38FEFF7F0C
:102AA00038EDFF7F01000000C2EDFF7F40FEFF7F99
:102AB000CAEDFF7F01000000D0EDFF7FB0B0A8801D
:082AC00010EEFF7F0100000091
:0C2AC800BD010008591800082D19000875
:042AD400990100085C
:102AD800000000006920000865230008100000209D
:102AE80000000000000000000000000000000000DE
:102AF80000000000000000000000000000000000CE
:102B080000000000000000000000000000000000BD
:102B180000000000000000000000000000000000AD
:102B2800000000000000000000000000000000009D
:102B3800000000000000000000000000000000008D
:04000005080018D106
:00000001FF
