:020000040800F2
:1000000000000220E91C0008351D0008351D00080D
:10001000351D0008351D0008351D000800000000D2
:10002000000000000000000000000000351D000876
:10003000351D000800000000351D0008351D0008B2
:10004000351D0008351D0008351D0008351D000848
:10005000351D0008351D0008351D0008351D000838
:10006000351D0008351D0008351D0008351D000828
:10007000351D0008351D0008351D0008351D000818
:10008000351D0008351D0008351D00080000000062
:10009000000000000000000000000000351D000806
:1000A000351D0008351D0008351D0008351D0008E8
:1000B000351D0008351D0008351D0008351D0008D8
:1000C000351D0008351D0008351D0008351D0008C8
:1000D000351D0008351D0008351D00080000000012
:1000E000351D0008351D0008351D00080000000002
:1000F000000000000000000000000000351D0008A6
:1001000000000000351D0008351D0008351D0008E1
:1001100000000000000000000000000000000000DF
:10012000351D0008351D0008351D0008351D000867
:10013000351D000800000000000000000000000065
:10014000000000000000000000000000351D000855
:10015000351D0008351D0008351D0008351D000837
:10016000351D0008351D00080000000000000000DB
:10017000000000000000000000000000000000007F
:1001800000000000351D0008000000000000000015
:08019000351D0008351D0008B3
:1001980010B5054C237833B9044B13B10448AFF3B9
:1001A80000800123237010BD3404002000000000EB
:1001B800201F000808B5034B1BB103490348AFF3E0
:1001C800008008BD0000000038040020201F00083F
:1001D800134A136B43F001031363A2F560521368CB
:1001E80043F4806313600A2110E001330D4A9342FF
:1001F800FBD90D4A536923F020035361002300E023
:100208000133084A9342FBD90139C9B231B1064AD0
:10021800536943F0200353610023E7E7704700BFA9
:10022800003802409F860100000002404368B3F195
:10023800FF3F01D100207047012070478368B3F168
:10024800FF3F01D1002070470120704770470368C5
:100258001A69816801238B401A4214BF01200020CB
:100268007047012070470B68B3F1FF3F0DD002685B
:10027800B2F1FF3F0BD0084931F8122022FA03F3FC
:1002880013F0010F05D100207047002070470020AF
:1002980070470120704700BF5004002010B50C467D
:1002A8000846FFF7CBFF10B12046FFF7BFFF10BD90
:1002B80008B50146FFF7F2FF08BD10B582B0044645
:1002C800FFF7F6FF40B163680093A368019301A9A3
:1002D8006846FFF7C8FF10B9002002B010BD04231C
:1002E8002362F9E74FF0FF33436083600023C36064
:1002F800036143618361C361704710B50446FFF72A
:10030800F1FF00232362A38410BD10B50446002327
:100318008384FFF7F2FF204610BD30B40B685BB151
:10032800012B21D0022B21D0032B21D0042B01D06B
:10033800104B02E0104B00E0104B0360104C236B95
:1003480001220D68AA40134323638268B2F1FF3F7C
:1003580008D00968012393400A4A32F81100034380
:1003680022F8113030BC7047074BE6E7074BE4E74B
:10037800074BE2E7001C0240001002400000024068
:1003880000380240500400200004024000080240E7
:10039800000C02404268B2F1FF3F08D08168012397
:1003A8008B40034931F81200034321F8123070479B
:1003B8005004002010B483680968046822685B0050
:1003C8004FF0030C0CFA03FC22EA0C0222600068CE
:1003D800026801FA03F3134303605DF8044B7047A6
:1003E80010B484680A68036859684FF0010C0CFA65
:1003F80004FC21EA0C01596001684B68A2401343D0
:100408004B605DF8044B704710B483680968046852
:10041800A2685B004FF0030C0CFA03FC22EA0C0202
:10042800A2600068826801FA03F3134383605DF8F1
:10043800044B704710B4836809680468E2685B007D
:100448004FF0030C0CFA03FC22EA0C02E26000688D
:10045800C26801FA03F31343C3605DF8044B7047A5
:1004680010B484680B68012B09D001684B6901221C
:10047800A24023EA02034B615DF8044B7047016810
:100488004A6903FA04F422434A61F5E730B587B0B4
:10049800054602240FE005EB84035B68019301A97C
:1004A8002846FFF787FF012303FA04F2AB8C23EAFF
:1004B8000203AB840134AB8C9BB3072C31D02341AE
:1004C80013F0010FF6D0022CE5D0032C0ED0042C2B
:1004D80015D0052C1CD0062CE5D105EB84035B68F0
:1004E800059305A92846FFF7BBFFDCE705EB840366
:1004F8005B68029302A92846FFF79CFFD3E705EB48
:1005080084035B68039303A92846FFF769FFCAE7DA
:1005180005EB84035B68049304A92846FFF774FF7E
:10052800C1E71BB1072C04D0012000E0012007B06F
:1005380030BD0020FBE710B504461046884708B1D7
:10054800A38C03B910BD2046FFF7A0FFFAE708B552
:10055800FFF76CFE08BD08B5FFF770FE08BD002068
:10056800704701207047022070470420704705201B
:100578007047032070470620704710B5044601F005
:1005880081F818B92046FFF793FE00B910BDFFF7B0
:100598001FFEFBE710B5044601F0DAF818B920464B
:1005A800FFF786FE00B910BDFFF712FEFBE708B59E
:1005B80001F034F908BD08B501F096F908BD08B591
:1005C80001F0F8F908BD08B501F05AFA08BD08B5F8
:1005D80001F0BCFA08BD00BF30B585B00125009513
:1005E8000B4C69462046FFF7F2FF0195283401A914
:1005F8002046FFF7DCFF029502A92046FFF7E7FF38
:100608000023039303A92046FFF7B7FFFEE700BFC7
:1006180060040020012800D070474FF6FF7399420C
:10062800FAD1F0B583B00E4C04F128073846FFF72D
:100638006CFE0C4E0C4D32462946384601F078FBCC
:100648000523009300231A460121204601F012FBDE
:1006580032462946204601F06BFB03B0F0BD00BFCF
:1006680060040020000000205502000808B54FF67D
:10067800FF710120FFF7CEFF08BD00BF03685A00D5
:100688004CBF43F0004323F000431844704700BFB9
:100698002DE9F84329B34F1E044615463E464FF050
:1006A800000808EB060101EBD171491004EBC10900
:1006B8004846FFF7E3FF0346C80008308F4220444E
:1006C80009D0AB4209D8FFF7D9FF0138A8420AD2AE
:1006D80001F10108E5E7AB4205D9884501D04E1E76
:1006E800DFE74FF000094846BDE8F883012807D046
:1006F800022807D0044B00280CBF1846002070477A
:100708000248704702487047CD0D0008D10D000817
:10071800D50D000830B5234B83B004468D1E3BB37E
:1007280001A92846AFF30080E8B101992A46FFF7EE
:10073800AFFF0146B8B1FFF7A1FF4B68A064012BDA
:100748002CD0002B01F1040024DBFFF797FF0023D6
:10075800C4E913030368002B11DBFFF78FFF206147
:10076800002003B030BD00230920236103B030BD51
:100778000D4B0E49C91AC91018460191D6E7C3F3A3
:100788000360FFF7B3FF0028206114BF0020092091
:1007980003B030BD0123C4E91303DBE70023236161
:1007A8000520DEE7000000009C1F0008D420000898
:1007B8000368DA0710B5044606D49B0700F1480021
:1007C80009D500F05BFC2368590709D51A070ED52F
:1007D800DB0613D510BD00F049FC23685907F5D492
:1007E80004F1D00000F052FC23681A07F0D404F595
:1007F800A87000F053FC2368DB06EBD404F5E8701E
:10080800BDE8104000F08EBC092070470346006820
:1008180000B11844704700BF704700BF70B5044668
:100828000E46316C2046FFF775FF054688B9326CD5
:100838006261236932462146012098470828F0D092
:10084800072806D12846316CFFF7E6FF301D00F077
:1008580001FC01F013FB00BF2DE9F0470D1DD0F896
:100868000C80D0F81890074614460FCDADF5727D70
:100878000DF10C0CACE80F000FCDACE80F000FCD5C
:10088800ACE80F0095E80F0002AE4FF0000E8CE8C0
:100898000F00C6F800E020E0336C7B614FF4F07283
:1008A80031467AA800F054FE3B697AAA3946504688
:1008B8009847889B73642146CDE9006905463B4605
:1008C8003A460120C0470446E0B94FF4F0727AA9CD
:1008D800304600F03DFE082D1AD1316C3846FFF73E
:1008E80019FF09345FFA84FA05460028D4D0B36B9F
:1008F80073643A46CDE900693B464AF0100101208D
:10090800C04700B1092528460DF5727DBDE8F0877E
:10091800072DF7D12046316CFFF77EFF03A800F0C2
:1009280099FB00BF406C7047F0B5CB6B0B6401F1CD
:10093800040C0E460546BCE80F00F9B001AC0FC424
:10094800BCE80F000FC4BCE80F000FC49CE80F0000
:100958004FF0FF3784E80F00009706E02B696A46DE
:10096800294698470828044608D110992846FFF7D1
:10097800D1FE0028F2D0092079B0F0BD6846FFF713
:1009880017FF062CF7D131462846FFF747FF00BF6F
:10099800C160D96B82611964002219465CE700BF07
:1009A80070B5C66843690B64AEB903690A46044664
:1009B8000D46014602209847072805D008280FD180
:1009C80029462046FFF72AFF3046296CFFF724FF07
:1009D800281D00F03FFB0122FFF73EFF01F04EFA11
:1009E80001F04CFAC2681AB1CA6B0A64002233E7F4
:1009F8009AE700BF704700BF836801460BB101202A
:100A080018477047012912D009D873B90F2A0CD892
:100A180000EB820218465368009A13607047033946
:100A2800012994BF01200220704702207047084620
:100A3800704700BF00B585B00A46002303A900919E
:100A48001946FFF7DFFF039805B05DF804FB00BF08
:100A5800012912D009D873B90F2A0CD800EB8200EB
:100A6800009A12684260184670470339012994BFFA
:100A7800012002207047022070470846704700BFD7
:100A880010B584B0002303AC039200940A461946BB
:100A9800FFF7DEFF04B010BD70B5D36B136402F12D
:100AA800040C05460C46BCE80F00ADF50E7D0DF1B3
:100AB8005C0EAEE80F00BCE80F00AEE80F00BCE823
:100AC8000F00AEE80F009CE80F004FF0FF368EE8ED
:100AD8000F00169610E0FFF7D3FF214616A8A84787
:100AE800034616AA6946082083B9049B9847052837
:100AF80006460CD0092809D026996846FFF70AFE51
:100B080003466A460C2116A8002BE4D0092616A82D
:100B1800FFF74EFE30460DF50E7D70BD2DE9F04F06
:100B2800CC6C89B01E4654F8043B06940D46174613
:100B380000F00308002E79D01A0C1B0405938DF8D9
:100B48001D200223D2B204EB82048DF81C302B6DD9
:100B5800B8F1020F08BFAC6B13F001030CD005A964
:100B6800384600F079FB18B9082009B0BDE8F08FC5
:100B7800092009B0BDE8F08FD4F800A0BAF1000F41
:100B8800EDD0019300F008030293022E4AD0B4F886
:100B980000A0B4F802900434AB6C29F0010B0F21CB
:100BA80038469B44FFF746FF834539D82AF00103AE
:100BB8009B44834594BF002001204FEA490303F07A
:100BC80002030AF0010A43EA0A03012B49D0022B67
:100BD80032D0002BCCD1B8F1000F02D0002840F061
:100BE800CD800434D4F800A0BAF1000FCDD105A906
:100BF800384600F031FB0028BAD1019B002BB3D056
:100C08000F213846FFF716FF0E2102463846FFF738
:100C180037FF38466A4A0F21FFF732FF0720A8E757
:100C28000020CAE7D4F804900834B5E71B020593FE
:100C38000323ADF81C308AE7236823F0004BB8F192
:100C4800000F45D128B1029A002A5CD0BBF1000FF1
:100C580074D0002B00DA04340BF1010B04EB8B0485
:100C6800C0E7B8F1000F19D1B0B163682268991CC8
:100C78004FEAD2723FF47CAF05F158010133049179
:100C880000F09080201DFFF7C1FD04AB0146284607
:100C9800AFF3008000285BD10834A3E70D21384664
:100CA800D5F82090FFF7C6FE8145F5D1AB6A9C4286
:100CB800F2D12046FFF7E2FC0F2102463846FFF743
:100CC800DFFE38462A460021FFF7DAFE072050E704
:100CD8000D213846D5F82090FFF7ACFE814501D0AC
:100CE8002368B6E7AB6A9C42FAD104230022C5E91F
:100CF8000B23E318C5F828B06B632368002B59DB76
:100D080001230193A8E705F15803CDF80C8004F1FD
:100D1800040AB04691461E460EE050460496FFF778
:100D280075FD0022014604AB284609F101090AF1C4
:100D3800040AAFF30080E0B9D945EED10D21384659
:100D4800FFF778FE049BAC62C5E90803062010E7AC
:100D580081460D213846FFF76DFEB9F1020F286272
:100D680025D12B46049A43F82C2F6B62AC620620DF
:100D7800FFE646462368DDF80C806AE72046FFF761
:100D88007DFC04340246AC6328461446AFF3008069
:100D980000283FF4EDAE384622460F21FFF770FEDB
:100DA8000720E6E60D213846FFF744FE2862049B3B
:100DB8006B62DBE70BF1010004EB80007AE700BF10
:100DC800000000000023A9E60123A7E60223A5E608
:100DD8002DE9F0430646C3B015461C46042900F227
:100DE800BF80DFE801F09E57BD2D0300002C40F0C6
:100DF800B780102A00F2B4800368D80600F1F980A1
:100E080020AF384600F098F9B46B394600234FF00C
:100E1800010C0CFA03F22A42204603F1010303D025
:100E280050F8042B0A600446042B01F10401F0D1A8
:100E38003846B46300F076F9002043B0BDE8F0838B
:100E4800032C40F08D8094B204EB1243102B4FEA30
:100E5800124500F2858003681F0700F1D28020AF99
:100E6800384600F03DF9B26B07EBC50154B10B46AB
:100E7800D01A01EBC401E4001D5843F8045B8B420F
:100E8800FAD122443846B26300F008F9002043B092
:100E9800BDE8F083012C4FEA124895B25CD0052CCE
:100EA8005ED108EB0509B9F1200F59D8B8F10F0F39
:100EB80079D9A946002D40F08A80B36B6DB320AF75
:100EC8004FF0000907EBC807043F03EBC50553F8CB
:100ED800041B47F8041FAB42F9D1B9F1000F0FD03A
:100EE8006F464146102938BF102107EBC1018439EC
:100EF80003EBC90553F8040B41F8040FAB42F9D1D1
:100F0800012C00F08680B8F10F0FB56347D9B9F10D
:100F1800000F02D0684600F0B9F8002043B0BDE8E1
:100F2800F083ECB9806B23461FFA82FC0124371D3D
:100F380004FA03F212EA0C0F014604D051F8042B0C
:100F480047F8232008460133102BF1D115F400553A
:100F5800E3D1B063284604E008EB0503102B03D95E
:100F6800022043B0BDE8F083B8F10F0FF8D833681A
:100F7800DA0706D5304623F0030340F8483B00F073
:100F880079F820AF384600F075F8B36B002D97D18B
:100F98001D460435B563384600F068F8BDE720A85B
:100FA80000F06CF8B3E7B9F1100F40D9A9F11009B6
:100FB8003368D90708D523F00103304643F002030C
:100FC80040F8483B00F05EF8B9F1000F32D03368C2
:100FD8005A0720D4B8F10F0F25D96F463846C8F103
:100FE800100500F057F8002DB36B7FF77AAF20AFEC
:100FF80068E723F01003336006F5E87000F09CF80A
:10100800FEE623F00803036000F5A87000F068F816
:1010180025E720AFBDE7304623F0040340F8D03B76
:1010280000F038F8D6E720A800F02CF8D5E74FF004
:101038000009BDE7B8F10F0F3FF63FAF20AF3846C4
:1010480000F020F8B36B002D7FF43AAF384600F07B
:1010580015F862E700F1340191E838009C46A6468D
:101068004CF8045D90E8FF0FE54600BD90EC210BBD
:10107800704700BF80EC210B704700BF90EC200B3D
:10108800704700BF80EC200B704700BFD0EC200BEE
:10109800704700BFC0EC200B704700BFF0EC0201A6
:1010A800F0EC0211F0EC0221F0EC0231F0EC02411C
:1010B800F0EC0251F0EC0261F0EC0271F0EC02810C
:1010C800F0EC0291F0EC02A1F0EC02B1F0EC02C1FC
:1010D800F0EC02D1F0EC02E1F0EC02F1704700BF55
:1010E800E0EC0201E0EC0211E0EC0221E0EC02315C
:1010F800E0EC0241E0EC0251E0EC0261E0EC02714C
:10110800E0EC0281E0EC0291E0EC02A1E0EC02B13B
:10111800E0EC02C1E0EC02D1E0EC02E1E0EC02F12B
:10112800704700BFB0FC0181B0FC0191B0FC01A187
:10113800B0FC01B1704700BFA0FC0181A0FC019187
:10114800A0FC01A1A0FC01B1704700BFEC4600B5AE
:101158002DE900502DE9FF1F4FF000032DE90C0089
:1011680001A9FFF7E1FBDDF840E012B0704700BFCE
:10117800EC4600B52DE900502DE9FF1F4FF00003A4
:101188002DE90C0001A9FFF70BFCDDF840E012B0D7
:10119800704700BFEC4600B52DE900502DE9FF1F50
:1011A8004FF000032DE90C0001A9FFF71BFCDDF847
:1011B80040E012B0704700BFEC4600B52DE9005082
:1011C8002DE9FF1F4FF000032DE90C0001ABFFF7DD
:1011D800DFFBDDF840E012B0704700BFEC4600B519
:1011E8002DE900502DE9FF1F4FF000032DE90C00F9
:1011F80001AAFFF751FCDDF840E012B0704700BFCC
:10120800027A03467AB9427AA2B14168013A10B427
:101218004272086803220C1D1A7202025C60000EFA
:1012280010BC1A6070470068013A1A7202021A600C
:10123800000E7047B020704700B585B0002303AAA0
:10124800009219460C22FFF7DDFB039805B05DF804
:1012580004FB00BFF0E700BF2DE9F043054685B069
:101268000E464FF000083046FFF7CAFFB028044684
:1012780000F0BA80070620D500F0F003802B4DD08F
:10128800902B36D0A02B60D0B02B74D0C02B00F0A0
:101298008B8000F0F803D02B0BD100F0070201324D
:1012A800052342F4002201212846FFF791FD00287A
:1012B800D9D0092005B0BDE8F0838300DBB21F1D3B
:1012C8000DF10C0900231946CDF800900D2228468F
:1012D800FFF798FB039BCDF8009060064CBFDF1B1F
:1012E800FF1800230D22194628460397FFF7B0FB85
:1012F800B9E700F00D030D2BDBD003AF002300F09E
:101308000F02194600972846FFF77CFB0023009739
:101318000D2219462846FFF79BFBA4E73046FFF746
:101328006FFF24022043B0F5004FC2D00401002310
:10133800A2B219462846FFF74BFD0028B9D114F48C
:10134800004F18BF4FF001088DE7C24302F00703B2
:101358004FF47F621A41010702F47F624FF00003E5
:1013680048BF42F4804219462846FFF731FD00285D
:101378003FF479AF9DE7B1283BD0B22800F09380C5
:10138800B32841D000F0FC03B42B92D000F0070240
:101398000132012342F4002219462846FFF718FDBE
:1013A80000283FF460AF84E7C6284AD0C72854D045
:1013B80000F0F803C02B63D0C82868D0C9287FF490
:1013C80078AF3046FFF71CFF020300F00F0002F46D
:1013D800702201300243012105232846FFF7F8FC5B
:1013E80000283FF440AF64E7B8F1000F18D00020A0
:1013F80060E73046FFF704FF024600283FF459AF84
:1014080010F0F003C8D054E73046FFF7F9FE0203A6
:1014180000F00F03013302F470221A430123BBE7E3
:1014280003AC43460E22414600942846FFF7EAFAE9
:10143800009443460F2241462846FFF709FB4046E1
:1014480038E73046FFF7DCFE020300F00F030133F4
:1014580002F470221A4303239EE73046FFF7D0FEBA
:10146800024600283FF425AF10F0F0037FF421AFC7
:1014780004212846FFF7ACFC00283FF4F4AE18E737
:1014880000F00F020132032342F4202284E73046A1
:10149800FFF7B6FE00F0F00200F00F031032013340
:1014A80043EA023297E700230DF10C090D22194691
:1014B800CDF800902846FFF7A5FA3046FFF7A0FEC2
:1014C80002064FF002040CD5039B00F07F00A040F9
:1014D800184403903046FFF793FE030604F107040F
:1014E800F2D4039BCDF8009000F07F02A24003F5F0
:1014F80001731A440023039219460D222846FFF768
:10150800A7FAB0E610B5C26C536884B04FF0030C6C
:1015180008321C0208461B0E01A9019402928DF89C
:101528000CC08DF80D30FFF797FE04B010BD00BF5A
:1015380008B5FFF78FFE806C08BD00BF08B5FFF740
:1015480089FEC06CC379023300EB830008BD00BF7D
:10155800844641EA000313F003036DD1403A41D3B6
:1015680051F8043B40F8043B51F8043B40F8043B75
:1015780051F8043B40F8043B51F8043B40F8043B65
:1015880051F8043B40F8043B51F8043B40F8043B55
:1015980051F8043B40F8043B51F8043B40F8043B45
:1015A80051F8043B40F8043B51F8043B40F8043B35
:1015B80051F8043B40F8043B51F8043B40F8043B25
:1015C80051F8043B40F8043B51F8043B40F8043B15
:1015D80051F8043B40F8043B51F8043B40F8043B05
:1015E800403ABDD2303211D351F8043B40F8043BA5
:1015F80051F8043B40F8043B51F8043B40F8043BE5
:1016080051F8043B40F8043B103AEDD20C3205D3B4
:1016180051F8043B40F8043B043AF9D2043208D0AC
:10162800D2071CBF11F8013B00F8013B01D30B881E
:1016380003806046704700BF082A13D38B078DD0FC
:1016480010F003038AD0C3F10403D21ADB071CBFCE
:1016580011F8013B00F8013B80D331F8023B20F838
:10166800023B7BE7043AD9D3013A11F8013B00F871
:10167800013BF9D20B7803704B7843708B788370F9
:1016880060467047F0B585B004460E46FEF767FF22
:10169800376804EB80035F6080B1054601282AD0D3
:1016A8002046FEF705FE0746002845D0A38C002BF0
:1016B8003DD02046FEF7EAFE074615E02046FEF735
:1016C8004AFF38B10097A368019301A96846FEF75D
:1016D800CAFD60B931462046FEF71FFE22461A4968
:1016E8002046FEF728FF0746384605B0F0BD04231C
:1016F80023620027F8E72046FEF729FF40B1636818
:1017080002933368039303A902A8FEF7ACFD50B90E
:1017180031462046FEF701FE22460C492046FEF7D8
:101728000AFF0746E0E7042323620027DCE7314687
:101738002046FEF7F2FDD7E7012000FA05F5A38C55
:101748001D43A584D0E700BF450200083502000804
:10175800F0B585B004460E46FEF703FF376804EB84
:1017680080035F6080B1054601282AD02046FEF735
:101778009FFD0746002845D0A38C002B3DD020466E
:10178800FEF784FE074615E02046FEF7E4FE38B172
:101798000097A368019301A96846FEF764FD60B944
:1017A80031462046FEF7F6FD22461A492046FEF746
:1017B800C2FE0746384605B0F0BD04232362002761
:1017C800F8E72046FEF7C3FE40B16368029333682A
:1017D800039303A902A8FEF746FD50B931462046F7
:1017E800FEF7D8FD22460C492046FEF7A4FE074620
:1017F800E0E7042323620027DCE731462046FEF7B2
:10180800C9FDD7E7012000FA05F5A38C1D43A5847F
:10181800D0E700BF4502000835020008F0B585B0E2
:1018280004460E46FEF79FFE376804EB80035F60B0
:1018380080B1054601282AD02046FEF739FD074623
:10184800002845D0A38C002B3DD02046FEF71EFE75
:10185800074615E02046FEF77EFE38B10097A368DC
:10186800019301A96846FEF7FEFC60B9314620469F
:10187800FEF7A0FD22461A492046FEF75CFE074601
:10188800384605B0F0BD042323620027F8E7204658
:10189800FEF75DFE40B1636802933368039303A9C2
:1018A80002A8FEF7E0FC50B931462046FEF782FD5B
:1018B80022460C492046FEF73EFE0746E0E7042391
:1018C80023620027DCE731462046FEF773FDD7E7A1
:1018D800012000FA05F5A38C1D43A584D0E700BFBD
:1018E8004502000835020008F0B585B004460E46EA
:1018F800FEF73FFE376804EB80035F6080B1054662
:1019080001282AD02046FEF7D3FC0746002845D0F8
:10191800A38C002B3DD02046FEF7B8FD074615E006
:101928002046FEF718FE38B10097A368019301A975
:101938006846FEF798FC60B931462046FEF77AFD06
:1019480022461A492046FEF7F6FD0746384605B0F6
:10195800F0BD042323620027F8E72046FEF7F7FDD1
:1019680040B1636802933368039303A902A8FEF7A2
:101978007AFC50B931462046FEF75CFD22460C49F8
:101988002046FEF7D8FD0746E0E704232362002738
:10199800DCE731462046FEF74DFDD7E7012000FA87
:1019A80005F5A38C1D43A584D0E700BF45020008B8
:1019B80035020008F0B585B004460E46FEF7D5FDA1
:1019C800376804EB80035F6080B1054601282AD0A0
:1019D8002046FEF76DFC0746002845D0A38C002B57
:1019E8003DD02046FEF752FD074615E02046FEF79B
:1019F800B2FD38B10097A368019301A96846FEF7C4
:101A080032FC60B931462046FEF7EAFC22461A4904
:101A18002046FEF790FD0746384605B0F0BD042382
:101A280023620027F8E72046FEF791FD40B163687E
:101A380002933368039303A902A8FEF714FC50B974
:101A480031462046FEF7CCFC22460C492046FEF7DC
:101A580072FD0746E0E7042323620027DCE73146EE
:101A68002046FEF7BDFCD7E7012000FA05F5A38C58
:101A78001D43A584D0E700BF4502000835020008D1
:101A8800F0B585B004460E46FEF771FD376804EBE5
:101A980080035F6080B1054601282AD02046FEF702
:101AA80007FC0746002845D0A38C002B3DD02046D4
:101AB800FEF7ECFC074615E02046FEF74CFD38B172
:101AC8000097A368019301A96846FEF7CCFB60B9AB
:101AD80031462046FEF798FC22461A492046FEF772
:101AE8002AFD0746384605B0F0BD042323620027C7
:101AF800F8E72046FEF72BFD40B163680293336890
:101B0800039303A902A8FEF7AEFB50B9314620465D
:101B1800FEF77AFC22460C492046FEF70CFD0746E4
:101B2800E0E7042323620027DCE731462046FEF77E
:101B38006BFCD7E7012000FA05F5A38C1D43A584AB
:101B4800D0E700BF4502000835020008F0B585B0AF
:101B580004460E46FEF70FFD376804EB80035F600E
:101B680080B1054601282AD02046FEF7A1FB07468A
:101B7800002845D0A38C002B3DD02046FEF786FCDC
:101B8800074615E02046FEF7E6FC38B10097A36843
:101B9800019301A96846FEF766FB60B93146204605
:101BA800FEF75EFC22461A492046FEF7C4FC0746AB
:101BB800384605B0F0BD042323620027F8E7204625
:101BC800FEF7C5FC40B1636802933368039303A929
:101BD80002A8FEF748FB50B931462046FEF740FC04
:101BE80022460C492046FEF7A6FC0746E0E70423F8
:101BF80023620027DCE731462046FEF731FCD7E7B1
:101C0800012000FA05F5A38C1D43A584D0E700BF89
:101C18004502000835020008134A136B43F001031C
:101C28001363A2F56052136843F4806313600A21BA
:101C380010E001330D4A9342FBD90D4A536923F052
:101C480020035361002300E00133084A9342FBD983
:101C58000139C9B231B1064A536943F020035361CF
:101C68000023E7E7704700BF003802409F86010065
:101C78000000024010B584B004460391029201931B
:101C880000238384FEF739FB03A92046FFF7C6FD2E
:101C980002A92046FFF75AFF01A92046FFF7F2FCE8
:101CA80006A92046FFF754FD10B1204604B010BD28
:101CB8002046FEF7FDFA0028F7D0FFF7ADFFF4E75E
:101CC8000120704708B500F03FF8162303604FF075
:101CD800FF3008BD08B54FF0FF31FFF7F3FFFEE70F
:101CE800DFF830D00C480D490D4A002302E0D458E3
:101CF800C4500433C4188C42F9D30A4A0A4C00234E
:101D080001E013600432A242FBD300F023F8FEF78F
:101D180063FC70470000022000000020340400200B
:101D2800E420000834040020B8040020FEE7000086
:101D380003460846194600F001B800BF13460A4694
:101D48000146022000F02AB8014B1868704700BF0E
:101D58000400002070B50D4E0D4D761BB61006D050
:101D6800002455F8043B01349847A642F9D1094E9E
:101D7800094D761B00F0D0F8B61006D0002455F8AF
:101D8800043B01349847A642F9D170BDD42000081D
:101D9800D4200008E0200008D42000082DE9F047EE
:101DA800DFF880A00646DAF8000098460F4691460C
:101DB80000F060F81A4B1B68D3F8484124B36568F3
:101DC8001F2D26DC5EB96B1C0235DAF80000636053
:101DD80044F8257000F050F80020BDE8F08704EBC7
:101DE80085010123C1F88890D4F88821AB401A43B3
:101DF800022EC4F88821C1F80881E4D1D4F88C21D6
:101E08001343C4F88C31DEE703F5A674C3F84841E0
:101E1800D5E7DAF8000000F02FF84FF0FF30DCE7E4
:101E2800381F000830040020024B13B1024800F0AC
:101E380005B8704700000000511E00080023014645
:101E48001A461846FFF7AABF38B5084B084D5B1B62
:101E58009C1007D0043B1D44013C55F804399847B1
:101E6800002CF9D1BDE8384000F05CB8E420000847
:101E7800E0200008704700BF704700BF08B5062083
:101E880000F004F80120FFF725FF00BF38B5154B17
:101E98001F281D6820D8D5F8DC22044662B152F804
:101EA80020304BB1012B15D0591C0FD0002542F81A
:101EB80020509847284638BD284600F02BF822467F
:101EC80001462846BDE8384000F00EB816232B60BE
:101ED800012038BD002038BD16232B604FF0FF309D
:101EE80038BD00BF0400002070B50C46084D0346FD
:101EF8000026204611461C462E60FFF7E3FE431CD1
:101F080000D070BD2B68002BFBD0236070BD00BFD4
:101F1800B4040020FFF7D4BEF8B500BFF8BC08BC75
:101F28009E467047F8B500BFF8BC08BC9E4670478F
:041F3800080000207D
:101F3C0008B10181B0B000840000000008B101813B
:101F4C00B0B000840000000008B10181B0B0008482
:101F5C000000000008B10181B0B000840000000056
:101F6C0008B10181B0B000840000000008B101810B
:101F7C00B0B000840000000008B10181B0B0008452
:101F8C000000000008B10181B0B000840000000026
:101F9C003CE2FF7F010000009AE5FF7FB0B0A88013
:101FAC00AAE5FF7F01000000CEE5FF7FB0B0A8805E
:101FBC00FAE5FF7F7CFFFF7FFAE5FF7F80FFFF7F65
:101FCC00FAE5FF7F84FFFF7FFAE5FF7F88FFFF7F45
:101FDC00FAE5FF7F8CFFFF7FFCE5FF7FB0A9048053
:101FEC0030E6FF7F0100000028E7FF7FB0A90280E8
:101FFC00BCE7FF7FB0B0A8800CE8FF7F01000000B9
:10200C0018E8FF7FB0B0AA804CE8FF7FAE71B280B9
:10201C0010E9FF7F010000000CE9FF7FAB3F388027
:10202C006CE9FF7F0100000074E9FF7FB0B0AA806B
:10203C00B0E9FF7F010000005CEAFF7FAA0DB280CF
:10204C00D8EAFF7FB0AF088078EDFF7F0100000079
:10205C007CEDFF7FAD3F0280F8EFFF7F01000000B9
:10206C00D4F1FF7F00840480E8F1FF7F01000000C1
:10207C00E4F1FF7FB0AD048088F4FF7FB0A803804B
:10208C00ACF4FF7FF4FEFF7FB0F4FF7FF8FEFF7F20
:10209C00BCF4FF7F01000000E8F5FF7FB0AB0480CB
:1020AC0074FBFF7F01000000C8FBFF7FB0A803801A
:1020BC000CFCFF7F0100000008FCFF7FB0FEFF7FDF
:0820CC0010FCFF7F0100000081
:0C20D400311E0008BD0100087506000860
:0420E000990100085A
:1020E400000000000800002000000000F4020020AE
:1020F4005C030020C4030020000000000000000076
:1021040000000000000000000000000000000000CB
:1021140000000000000000000000000000000000BB
:1021240000000000000000000000000000000000AB
:10213400000000000000000000000000000000009B
:10214400000000000000000000000000000000008B
:10215400000000000000000000000000000000007B
:10216400000000000000000000000000000000006B
:10217400000000000000000000000000000000005B
:10218400000000000000000000000000000000004B
:1021940001000000000000000E33CDAB34126DE6E8
:1021A400ECDE05000B000000000000000000000051
:1021B400000000000000000000000000000000001B
:1021C400000000000000000000000000000000000B
:1021D40000000000000000000000000000000000FB
:1021E40000000000000000000000000000000000EB
:04251400B0040020EF
:0400000508001CE9EA
:00000001FF
